{
  "contractName": "Tenant",
  "abi": [
    {
      "inputs": [
        {
          "internalType": "uint256",
          "name": "",
          "type": "uint256"
        }
      ],
      "name": "tenants",
      "outputs": [
        {
          "internalType": "string",
          "name": "name",
          "type": "string"
        },
        {
          "internalType": "uint256",
          "name": "price",
          "type": "uint256"
        }
      ],
      "stateMutability": "view",
      "type": "function"
    },
    {
      "inputs": [
        {
          "internalType": "string",
          "name": "name",
          "type": "string"
        },
        {
          "internalType": "uint256",
          "name": "price",
          "type": "uint256"
        }
      ],
      "name": "newTenant",
      "outputs": [],
      "stateMutability": "nonpayable",
      "type": "function"
    }
  ],
  "bytecode": "0x608060405234801561001057600080fd5b5061063f806100206000396000f3fe608060405234801561001057600080fd5b50600436106100365760003560e01c8063bd2ba85d1461003b578063f1739fdc1461006c575b600080fd5b6100556004803603810190610050919061028d565b610088565b604051610063929190610362565b60405180910390f35b610086600480360381019061008191906104c7565b610134565b005b60016020528060005260406000206000915090508060000180546100ab90610552565b80601f01602080910402602001604051908101604052809291908181526020018280546100d790610552565b80156101245780601f106100f957610100808354040283529160200191610124565b820191906000526020600020905b81548152906001019060200180831161010757829003601f168201915b5050505050908060010154905082565b600160005461014391906105b3565b6000819055506040518060400160405280838152602001828152506001600080548152602001908152602001600020600082015181600001908051906020019061018e9291906101a0565b50602082015181600101559050505050565b8280546101ac90610552565b90600052602060002090601f0160209004810192826101ce5760008555610215565b82601f106101e757805160ff1916838001178555610215565b82800160010185558215610215579182015b828111156102145782518255916020019190600101906101f9565b5b5090506102229190610226565b5090565b5b8082111561023f576000816000905550600101610227565b5090565b6000604051905090565b600080fd5b600080fd5b6000819050919050565b61026a81610257565b811461027557600080fd5b50565b60008135905061028781610261565b92915050565b6000602082840312156102a3576102a261024d565b5b60006102b184828501610278565b91505092915050565b600081519050919050565b600082825260208201905092915050565b60005b838110156102f45780820151818401526020810190506102d9565b83811115610303576000848401525b50505050565b6000601f19601f8301169050919050565b6000610325826102ba565b61032f81856102c5565b935061033f8185602086016102d6565b61034881610309565b840191505092915050565b61035c81610257565b82525050565b6000604082019050818103600083015261037c818561031a565b905061038b6020830184610353565b9392505050565b600080fd5b600080fd5b7f4e487b7100000000000000000000000000000000000000000000000000000000600052604160045260246000fd5b6103d482610309565b810181811067ffffffffffffffff821117156103f3576103f261039c565b5b80604052505050565b6000610406610243565b905061041282826103cb565b919050565b600067ffffffffffffffff8211156104325761043161039c565b5b61043b82610309565b9050602081019050919050565b82818337600083830152505050565b600061046a61046584610417565b6103fc565b90508281526020810184848401111561048657610485610397565b5b610491848285610448565b509392505050565b600082601f8301126104ae576104ad610392565b5b81356104be848260208601610457565b91505092915050565b600080604083850312156104de576104dd61024d565b5b600083013567ffffffffffffffff8111156104fc576104fb610252565b5b61050885828601610499565b925050602061051985828601610278565b9150509250929050565b7f4e487b7100000000000000000000000000000000000000000000000000000000600052602260045260246000fd5b6000600282049050600182168061056a57607f821691505b6020821081141561057e5761057d610523565b5b50919050565b7f4e487b7100000000000000000000000000000000000000000000000000000000600052601160045260246000fd5b60006105be82610257565b91506105c983610257565b9250827fffffffffffffffffffffffffffffffffffffffffffffffffffffffffffffffff038211156105fe576105fd610584565b5b82820190509291505056fea2646970667358221220856917d249f8c5608b81f9a8ff126504a8283508a7dbc3a35c871ac7391f17b764736f6c634300080a0033",
  "immutableReferences": {},
  "source": "pragma solidity 0.8.10;\r\n\r\ncontract Tenant {\r\n\r\n\r\n    // struct to store the tenant's data\r\n    struct _Tenant {\r\n        string name;\r\n        uint256 price;\r\n    }\r\n\r\n    uint256 counter;\r\n\r\n    mapping (uint256 => _Tenant) public tenants;\r\n\r\n    function newTenant(string memory name, uint256 price) public {\r\n        counter = counter + 1;\r\n        tenants[counter] = _Tenant(name, price);\r\n    }\r\n\r\n}",
  "sourcePath": "C:\\Users\\Uju Nobei\\Documents\\Israel Linux\\blockchain\\signing transaction with web3\\contracts\\Tenant.sol",
  "compiler": {
    "name": "solc",
    "version": "0.8.10+commit.fc410830.Emscripten.clang"
  },
  "schemaVersion": "3.4.3",
  "updatedAt": "2022-01-11T12:35:13.468Z",
  "devdoc": {
    "kind": "dev",
    "methods": {},
    "version": 1
  },
  "userdoc": {
    "kind": "user",
    "methods": {},
    "version": 1
  }
}